:100000000EC020C01FC01EC01DC01CC01BC01AC017
:1000100019C018C017C016C015C014C013C01124D1
:100020001FBECFE5D2E0DEBFCDBF10E0A0E6B0E05E
:10003000E4E6F5E002C005900D92A63CB107D9F7C1
:10004000EDD18EC2DDCF809360000895F894C398FF
:1000500090916000992319F000009150FBCF98E037
:1000600080FF02C0C39A01C0C39820916000222380
:1000700019F000002150FBCF8695915089F7C39A63
:1000800080916000882319F000008150FBCF7894A4
:100090000895CF93DF93EC018991882311F0D6DF87
:1000A000FBCFDF91CF9108950F931F93CF93DF93F1
:1000B000CDB7DEB727970FB6F894DEBF0FBECDBF22
:1000C0008C0180E289831F82C80117FF04C0882742
:1000D0009927801B910BBE016E5F7F4F33D1282F74
:1000E00030E017FF08C08DE2E1E0F0E0EC0FFD1F0B
:1000F000E20FF31F8083812F8095F90187FD3196F0
:10010000CF0121E030E02C0F3D1F820F931FC1DF94
:1001100027960FB6F894DEBF0FBECDBFDF91CF910B
:100120001F910F9108950F931F93CF93DF93CDB736
:10013000DEB727970FB6F894DEBF0FBECDBF8C0198
:1001400080E289831F82C80117FF04C0882799278E
:10015000801B910BBE016E5F7F4FF4D017FF08C06C
:10016000E1E0F0E0EC0FFD1FE80FF11D8DE2808370
:10017000CE0101968EDF27960FB6F894DEBF0FBE34
:10018000CDBFDF91CF911F910F910895CF93DF9352
:1001900000D000D000D0CDB7DEB71E82BE016F5FA9
:1001A0007F4FD0D021E030E02C0F3D1F280F311DB4
:1001B000C9016FDF26960FB6F894DEBF0FBECDBF24
:1001C000DF91CF910895CF93DF9300D000D000D07E
:1001D000CDB7DEB71E82BE016F5F7F4FB3D0CE01B9
:1001E000019657DF26960FB6F894DEBF0FBECDBF3F
:1001F000DF91CF910895CF93DF9300D000D01F926D
:10020000CDB7DEB71D82BE016F5F7F4F90E0D4D0C7
:10021000CE0103963EDF0F900F900F900F900F903E
:10022000DF91CF910895CF93DF9300D000D01F923C
:10023000CDB7DEB71D82BE016F5F7F4FBDD0CE014F
:10024000019627DF0F900F900F900F900F90DF9186
:10025000CF910895CF93DF93CDB7DEB761970FB6F7
:10026000F894DEBF0FBECDBF198ABE016F5F7F4F0E
:1002700090E0B9D021E030E02C0F3D1F280F311D58
:10028000C90107DF61960FB6F894DEBF0FBECDBF80
:10029000DF91CF910895CF93DF93CDB7DEB761970C
:1002A0000FB6F894DEBF0FBECDBF198ABE016F5FD7
:1002B0007F4F90E098D0CE010996EBDE61960FB6A5
:1002C000F894DEBF0FBECDBFDF91CF910895CF93DD
:1002D000DF93CDB7DEB761970FB6F894DEBF0FBEE0
:1002E000CDBF198ABE016F5F7F4F7DD021E030E026
:1002F0002C0F3D1F280F311DC901CBDE61960FB6B3
:10030000F894DEBF0FBECDBFDF91CF910895CF939C
:10031000DF93CDB7DEB761970FB6F894DEBF0FBE9F
:10032000CDBF198ABE016F5F7F4F5DD0CE010196B0
:10033000B0DE61960FB6F894DEBF0FBECDBFDF9181
:10034000CF910895CF93DF93CDB7DEB72A970FB63D
:10035000F894DEBF0FBECDBFAC018AE0E1E6F0E06D
:10036000DE01119601900D928A95E1F7FE0131961A
:10037000DB0120E084E06191719190E0461757071E
:1003800020F09F5F461B570BF9CF843039F4911151
:1003900004C0243011F090EF01C0822F905D9D9336
:1003A0002F5F253041F72A960FB6F894DEBF0FBEB7
:1003B000CDBFDF91CF910895AC01FB01339624E0CE
:1003C000942F9F709A3010F4905D01C0995C9083D7
:1003D00084E0569547958A95E1F721503197211190
:1003E000EFCF84E00895FC0120E08FE040E050E88A
:1003F000E417F50730F0E41BF50B8F3021F4822F62
:1004000002C090E001C091E0905DDB019D93BD01D1
:10041000569547952F5F203159F70895BB9AC39A97
:100420008BE690E036DE84E790E033DE8BE790E009
:100430003BDE83EC90E02DDE87E790E02ADE8EE65F
:1004400092EB32DE83EC90E024DE8AE790E021DE5E
:100450008BE79CEF29DE83EC90E01BDE8DE790E0DC
:1004600018DE80E694EA20DE83EC90E012DE80E87D
:1004700090E00FDE8BE790E089DE83EC90E009DE10
:1004800083E890E006DE8EE692EB80DE83EC90E07F
:1004900000DE86E890E0FDDD8BE79CEF77DE83EC05
:1004A00090E0F7DD89E890E0F4DD80E694EA6EDE26
:1004B00083EC90E0EEDD8CE890E0EBDD8BE790E004
:1004C00032DE83EC90E0E5DD8FE890E0E2DD8EE661
:1004D00092EB29DE83EC90E0DCDD82E990E0D9DD6F
:1004E0008BE79CEF20DE83EC90E0D3DD85E990E0A4
:1004F000D0DD80E694EA17DE83EC90E0CADD88E97F
:1005000090E0C7DD8BE790E05EDE83EC90E0C1DD3C
:100510008BE990E0BEDD8EE692EB55DE83EC90E059
:10052000B8DD8EE990E0B5DD8BE79CEF4CDE83EC27
:1005300090E0AFDD81EA90E0ACDD80E694EA43DE56
:1005400083EC90E0A6DD84EA90E0A3DD2FE78AE16A
:1005500096E0215080409040E1F700C0000060CF5D
:04056000F894FFCF3D
:100564000F1027E80364000A00010048656C6C6FF3
:10057400210D0A00413D00423D00433D00443D0041
:10058400453D00463D00473D00483D00493D004A89
:100594003D004B3D004C3D004D3D004E3D004F3D68
:1005A40000503D000D0A2D2D2D2D2D2D2D2D5B4799
:1005B4006F6F642D627965215D2D2D2D2D2D2D2DCF
:0605C4002D0D0A0D0A00D6
:00000001FF
