:100000000EC020C01FC01EC01DC01CC01BC01AC017
:1000100019C018C017C016C015C014C013C01124D1
:100020001FBECFE5D2E0DEBFCDBF10E0A0E6B0E05E
:10003000EAE5F5E002C005900D92A63CB107D9F7BC
:10004000E8D189C2DDCF809360000895C398909174
:100050006000992319F000009150FBCF98E080FFD9
:1000600002C0C39A01C0C39820916000222319F0F6
:1000700000002150FBCF8695915089F7C39A80915B
:100080006000882319F000008150FBCF0895CF93C2
:10009000DF93EC018991882311F0D8DFFBCFDF914A
:1000A000CF9108950F931F93CF93DF93CDB7DEB712
:1000B00027970FB6F894DEBF0FBECDBF8C0180E24C
:1000C00089831F82C80117FF04C088279927801BD6
:1000D000910BBE016E5F7F4F30D190E017FF08C0DB
:1000E0002DE2E1E0F0E0EC0FFD1FE80FF91F2083A7
:1000F000212F209527FD019621E030E02C0F3D1F98
:10010000820F931FC4DF27960FB6F894DEBF0FBE91
:10011000CDBFDF91CF911F910F9108950F931F9342
:10012000CF93DF93CDB7DEB727970FB6F894DEBF36
:100130000FBECDBF8C0180E289831F82C80117FFEB
:1001400004C088279927801B910BBE016E5F7F4FEB
:10015000F4D017FF08C0E1E0F0E0EC0FFD1FE80F5E
:10016000F11D8DE28083CE01019691DF27960FB6B7
:10017000F894DEBF0FBECDBFDF91CF911F910F91DD
:100180000895CF93DF9300D000D000D0CDB7DEB775
:100190001E82BE016F5F7F4FD0D021E030E02C0F78
:1001A0003D1F280F311DC90172DF26960FB6F89446
:1001B000DEBF0FBECDBFDF91CF910895CF93DF9308
:1001C00000D000D000D0CDB7DEB71E82BE016F5F79
:1001D0007F4FB3D0CE0101965ADF26960FB6F89422
:1001E000DEBF0FBECDBFDF91CF910895CF93DF93D8
:1001F00000D000D01F92CDB7DEB71D82BE016F5F69
:100200007F4F90E0D4D0CE01039641DF0F900F9046
:100210000F900F900F90DF91CF910895CF93DF93C0
:1002200000D000D01F92CDB7DEB71D82BE016F5F38
:100230007F4FBDD0CE0101962ADF0F900F900F9017
:100240000F900F90DF91CF910895CF93DF93CDB7AB
:10025000DEB761970FB6F894DEBF0FBECDBF198A27
:10026000BE016F5F7F4F90E0B9D021E030E02C0FEE
:100270003D1F280F311DC9010ADF61960FB6F894A2
:10028000DEBF0FBECDBFDF91CF910895CF93DF9337
:10029000CDB7DEB761970FB6F894DEBF0FBECDBF06
:1002A000198ABE016F5F7F4F90E098D0CE0109960A
:1002B000EEDE61960FB6F894DEBF0FBECDBFDF91C4
:1002C000CF910895CF93DF93CDB7DEB761970FB687
:1002D000F894DEBF0FBECDBF198ABE016F5F7F4F9E
:1002E0007DD021E030E02C0F3D1F280F311DC901CA
:1002F000CEDE61960FB6F894DEBF0FBECDBFDF91A4
:10030000CF910895CF93DF93CDB7DEB761970FB646
:10031000F894DEBF0FBECDBF198ABE016F5F7F4F5D
:100320005DD0CE010196B3DE61960FB6F894DEBFC4
:100330000FBECDBFDF91CF910895CF93DF93CDB79F
:10034000DEB72A970FB6F894DEBF0FBECDBFAC0163
:100350008AE0E1E6F0E0DE01119601900D928A95C7
:10036000E1F7FE013196DB0120E084E061917191BB
:1003700090E04617570720F09F5F461B570BF9CFB9
:10038000843039F4911104C0243011F090EF01C091
:10039000822F905D9D932F5F253041F72A960FB6EF
:1003A000F894DEBF0FBECDBFDF91CF910895AC01B1
:1003B00024E0942F9F709A3010F4905D01C0995CF6
:1003C000FB01938384E0569547958A95E1F7215088
:1003D000615071092111EDCF84E00895FC0120E006
:1003E0008FE040E050E8E417F50730F0E41BF50B30
:1003F0008F3021F4822F02C090E001C091E0905D27
:10040000DB019D93BD01569547952F5F203159F72C
:100410000895BB9AC39A8BE690E039DE84E790E0BA
:1004200036DE8BE790E03EDE83EC90E030DE87E75F
:1004300090E02DDE8EE692EB35DE83EC90E027DE59
:100440008AE790E024DE8BE79CEF2CDE83EC90E0E3
:100450001EDE8DE790E01BDE80E694EA23DE83EC6F
:1004600090E015DE80E890E012DE8BE790E089DE18
:1004700083EC90E00CDE83E890E009DE8EE692EB00
:1004800080DE83EC90E003DE86E890E000DE8BE720
:100490009CEF77DE83EC90E0FADD89E890E0F7DD11
:1004A00080E694EA6EDE83EC90E0F1DD8CE890E08B
:1004B000EEDD8BE790E032DE83EC90E0E8DD8FE864
:1004C00090E0E5DD8EE692EB29DE83EC90E0DFDD67
:1004D00082E990E0DCDD8BE79CEF20DE83EC90E0AE
:1004E000D6DD85E990E0D3DD80E694EA17DE83EC83
:1004F00090E0CDDD88E990E0CADD8BE790E05EDE3C
:1005000083EC90E0C4DD8BE990E0C1DD8EE692EBF8
:1005100055DE83EC90E0BBDD8EE990E0B8DD8BE743
:100520009CEF4CDE83EC90E0B2DD81EA90E0AFDD41
:1005300080E694EA43DE83EC90E0A9DD84EA90E073
:10054000A6DD2FE78AE196E0215080409040E1F758
:0A05500000C0000060CFF894FFCF58
:10055A000F1027E80364000A00010048656C6C6FFD
:10056A00210D0A00413D00423D00433D00443D004B
:10057A00453D00463D00473D00483D00493D004A93
:10058A003D004B3D004C3D004D3D004E3D004F3D72
:10059A0000503D000D0A2D2D2D2D2D2D2D2D5B47A3
:1005AA006F6F642D627965215D2D2D2D2D2D2D2DD9
:0605BA002D0D0A0D0A00E0
:00000001FF
