:100000000EC020C01FC01EC01DC01CC01BC01AC017
:1000100019C018C017C016C015C014C013C01124D1
:100020001FBECFE5D2E0DEBFCDBF10E0A0E6B0E05E
:10003000E4EDF4E002C005900D92A03DB107D9F7C0
:100040009BD146C2DDCFF894C39899E1000091504E
:10005000E9F798E080FF02C0C39A01C0C39829E184
:1000600000002150E9F786959150A1F7C39A89E1E4
:1000700000008150E9F778940895CF93DF93EC0165
:100080008991882311F0DFDFFBCFDF91CF910895B5
:100090000F931F93CF93DF93CDB7DEB727970FB69C
:1000A000F894DEBF0FBECDBF8C0180E289831F8232
:1000B000C80117FF04C088279927801B910BBE0138
:1000C0006E5F7F4F04D1282F30E017FF08C08DE20C
:1000D000E1E0F0E0EC0FFD1FE20FF31F8083812FC2
:1000E0008095F90187FD3196CF0121E030E02C0F9A
:1000F0003D1F820F931FC1DF27960FB6F894DEBF16
:100100000FBECDBFDF91CF911F910F9108950F9337
:100110001F93CF93DF93CDB7DEB727970FB6F89431
:10012000DEBF0FBECDBF8C0180E289831F82C80174
:1001300017FF04C088279927801B910BBE016E5FB3
:100140007F4FC5D017FF08C0E1E0F0E0EC0FFD1FC6
:10015000E80FF11D8DE28083CE0101968EDF279698
:100160000FB6F894DEBF0FBECDBFDF91CF911F91C8
:100170000F910895CF93DF9300D000D000D0CDB77A
:10018000DEB71E82BE016F5F7F4FA1D021E030E05D
:100190002C0F3D1F280F311DC9016FDF26960FB6AA
:1001A000F894DEBF0FBECDBFDF91CF910895CF93FE
:1001B000DF9300D000D000D0CDB7DEB71E82BE01E5
:1001C0006F5F7F4F84D0CE01019657DF26960FB622
:1001D000F894DEBF0FBECDBFDF91CF910895CF93CE
:1001E000DF93CDB7DEB761970FB6F894DEBF0FBED1
:1001F000CDBF198ABE016F5F7F4F90E0A2D021E092
:1002000030E02C0F3D1F280F311DC90136DF6196EC
:100210000FB6F894DEBF0FBECDBFDF91CF9108952A
:10022000CF93DF93CDB7DEB761970FB6F894DEBFFB
:100230000FBECDBF198ABE016F5F7F4F90E081D0A6
:10024000CE0109961ADF61960FB6F894DEBF0FBE95
:10025000CDBFDF91CF910895CF93DF93CDB7DEB7B8
:1002600061970FB6F894DEBF0FBECDBF198ABE01ED
:100270006F5F7F4F66D021E030E02C0F3D1F280FCD
:10028000311DC901FADE61960FB6F894DEBF0FBECC
:10029000CDBFDF91CF910895CF93DF93CDB7DEB778
:1002A00061970FB6F894DEBF0FBECDBF198ABE01AD
:1002B0006F5F7F4F46D0CE010196DFDE61960FB6AD
:1002C000F894DEBF0FBECDBFDF91CF910895CF93DD
:1002D000DF93CDB7DEB72A970FB6F894DEBF0FBE17
:1002E000CDBFAC018AE0E0E6F0E0DE0111960190BE
:1002F0000D928A95E1F7FE013196DB0120E084E062
:100300006191719190E04617570720F09F5F461B5F
:10031000570BF9CF843039F4911104C0243011F017
:1003200090EF01C0822F905D9D932F5F253041F7A4
:100330002A960FB6F894DEBF0FBECDBFDF91CF91E6
:100340000895FC0120E08FE040E050E8E417F50755
:1003500030F0E41BF50B8F3021F4822F02C090E0C7
:1003600001C091E0905DDB019D93BD0156954795DD
:100370002F5F203159F70895BB9AC39A8AE690E01F
:100380007CDE82E790E079DE85E790E076DEC1E40E
:100390008C2F59DE8FE790E070DECF5FCB35C1F751
:1003A00082E790E06ADE81E890E067DEC1E9DFEF96
:1003B000CE016EDE8FE790E060DE6196CF37D1052B
:1003C000B9F782E790E059DE89E890E056DEC1E9AE
:1003D000DFEFCE019CDE8FE790E04FDE6196CF37F6
:1003E000D105B9F782E790E048DE82E990E045DE8A
:1003F000C1E9DFEFCE01BEDE8FE790E03EDE619621
:10040000CF37D105B9F782E790E037DE8BE990E08E
:1004100034DEC1E9DFEFCE01CADE8FE790E02DDEEA
:100420006196CF37D105B9F782E790E026DE85EAFD
:1004300090E023DEC2E08C2FD2DE8FE790E01DDE5D
:10044000C957CD3DC1F782E790E017DE8EEA90E014
:1004500014DEC2E08C2FE4DE8FE790E00EDEC95799
:10046000CD3DC1F782E790E008DE89EB90E005DE44
:10047000C2E0D0E0CE01F0DE8FE790E0FEDDC957AC
:10048000DC4ECD3D2DEFD207A9F782E790E0F5DDF8
:1004900083EC90E0F2DDC2E0D0E0CE01FDDE8FE73C
:1004A00090E0EBDDC957DC4ECD3D8DEFD807A9F7C5
:1004B00082E790E0E2DD82E790E0DFDD9FEF24E37A
:1004C0008CE0915020408040E1F700C000005CCFFC
:0404D000F894FFCFCE
:1004D4001027E80364000A00010054657374696E10
:1004E40067000D0A00416C7068616265743A002C03
:1004F400004E554D4445433A004E554D44454350F6
:100504003A004E554D444543553A004E554D4445E9
:100514004355503A004E554D42494E553A004E55BA
:100524004D42494E55505A3A004E554D42494E554A
:10053400573A004E554D42494E5557505A3A0000CD
:00000001FF
