:100000000EC020C01FC01EC01DC01CC01BC01AC017
:1000100019C018C017C016C015C014C013C01124D1
:100020001FBECFE5D2E0DEBFCDBF11E0A0E6B0E05D
:10003000E2E4F7E002C005900D92AC31B107D9F7C8
:10004000EDD17DC3DDCF809360000895F894C3980F
:1000500090916000992319F000009150FBCF98E037
:1000600080FF02C0C39A01C0C39820916000222380
:1000700019F000002150FBCF8695915089F7C39A63
:1000800080916000882319F000008150FBCF7894A4
:100090000895CF93DF93EC018991882311F0D6DF87
:1000A000FBCFDF91CF9108950F931F93CF93DF93F1
:1000B000CDB7DEB727970FB6F894DEBF0FBECDBF22
:1000C0008C0180E289831F82C80117FF04C0882742
:1000D0009927801B910BBE016E5F7F4F33D1282F74
:1000E00030E017FF08C08DE2E1E0F0E0EC0FFD1F0B
:1000F000E20FF31F8083812F8095F90187FD3196F0
:10010000CF0121E030E02C0F3D1F820F931FC1DF94
:1001100027960FB6F894DEBF0FBECDBFDF91CF910B
:100120001F910F9108950F931F93CF93DF93CDB736
:10013000DEB727970FB6F894DEBF0FBECDBF8C0198
:1001400080E289831F82C80117FF04C0882799278E
:10015000801B910BBE016E5F7F4FF4D017FF08C06C
:10016000E1E0F0E0EC0FFD1FE80FF11D8DE2808370
:10017000CE0101968EDF27960FB6F894DEBF0FBE34
:10018000CDBFDF91CF911F910F910895CF93DF9352
:1001900000D000D000D0CDB7DEB71E82BE016F5FA9
:1001A0007F4FD0D021E030E02C0F3D1F280F311DB4
:1001B000C9016FDF26960FB6F894DEBF0FBECDBF24
:1001C000DF91CF910895CF93DF9300D000D000D07E
:1001D000CDB7DEB71E82BE016F5F7F4FB3D0CE01B9
:1001E000019657DF26960FB6F894DEBF0FBECDBF3F
:1001F000DF91CF910895CF93DF9300D000D01F926D
:10020000CDB7DEB71D82BE016F5F7F4F90E0D4D0C7
:10021000CE0103963EDF0F900F900F900F900F903E
:10022000DF91CF910895CF93DF9300D000D01F923C
:10023000CDB7DEB71D82BE016F5F7F4FBDD0CE014F
:10024000019627DF0F900F900F900F900F90DF9186
:10025000CF910895CF93DF93CDB7DEB761970FB6F7
:10026000F894DEBF0FBECDBF198ABE016F5F7F4F0E
:1002700090E0B9D021E030E02C0F3D1F280F311D58
:10028000C90107DF61960FB6F894DEBF0FBECDBF80
:10029000DF91CF910895CF93DF93CDB7DEB761970C
:1002A0000FB6F894DEBF0FBECDBF198ABE016F5FD7
:1002B0007F4F90E098D0CE010996EBDE61960FB6A5
:1002C000F894DEBF0FBECDBFDF91CF910895CF93DD
:1002D000DF93CDB7DEB761970FB6F894DEBF0FBEE0
:1002E000CDBF198ABE016F5F7F4F7DD021E030E026
:1002F0002C0F3D1F280F311DC901CBDE61960FB6B3
:10030000F894DEBF0FBECDBFDF91CF910895CF939C
:10031000DF93CDB7DEB761970FB6F894DEBF0FBE9F
:10032000CDBF198ABE016F5F7F4F5DD0CE010196B0
:10033000B0DE61960FB6F894DEBF0FBECDBFDF9181
:10034000CF910895CF93DF93CDB7DEB72A970FB63D
:10035000F894DEBF0FBECDBFAC018AE0E1E6F0E06D
:10036000DE01119601900D928A95E1F7FE0131961A
:10037000DB0120E084E06191719190E0461757071E
:1003800020F09F5F461B570BF9CF843039F4911151
:1003900004C0243011F090EF01C0822F905D9D9336
:1003A0002F5F253041F72A960FB6F894DEBF0FBEB7
:1003B000CDBFDF91CF910895AC01FB01339624E0CE
:1003C000942F9F709A3010F4905D01C0995C9083D7
:1003D00084E0569547958A95E1F721503197211190
:1003E000EFCF84E00895FC0120E08FE040E050E88A
:1003F000E417F50730F0E41BF50B8F3021F4822F62
:1004000002C090E001C091E0905DDB019D93BD01D1
:10041000569547952F5F203159F70895BB9AC39A97
:100420008AE314DE89E212DE80E210DE8BE690E0E1
:1004300030DE82E790E02DDEC1E48C2F07DECF5F57
:10044000CB35D9F782E790E024DE85E790E021DE26
:1004500082E790E01EDE8BE790E026DE82E790E008
:1004600018DE85E89FEF20DE82E790E012DE87ED60
:1004700091E159DE82E790E00CDE89E29EEE53DEE8
:1004800082E790E006DE8BE790E080DE82E790E096
:1004900000DE87ED91E197DE82E790E0FADD84E807
:1004A00090E0F7DD82E790E0F4DD82E990E0F1DDB5
:1004B0008BE790E0F9DD87E990E0EBDD8AE990E0F9
:1004C000E8DD82E790E0E5DD8EE990E0E2DD82E7BD
:1004D00090E0DFDD8AEA90E0DCDD8CEA90E0D9DDB7
:1004E0008BE790E0E1DD8EEA90E0D3DD81EB90E0F8
:1004F000D0DD8CEA90E0CDDD8EE692EBD5DD8EEAA4
:1005000090E0C7DD83EB90E0C4DD8CEA90E0C1DDD4
:100510008BE79CEFC9DD8EEA90E0BBDD85EB90E0D8
:10052000B8DD8CEA90E0B5DD80E694EABDDD8EEAC8
:1005300090E0AFDD87EB90E0ACDD8CEA90E0A9DDE8
:100540008BE790E023DE8EEA90E0A3DD89EB90E07C
:10055000A0DD8CEA90E09DDD8EE692EB17DE8EEA60
:1005600090E097DD8BEB90E094DD8CEA90E091DDFC
:100570008BE79CEF0BDE8EEA90E08BDD8DEB90E05D
:1005800088DD8CEA90E085DD80E694EAFFDD8EEA86
:1005900090E07FDD82E790E07CDD8FEB90E079DD1D
:1005A00082E790E076DD81E026DE82E790E071DD93
:1005B0008AEE21DE82E790E06CDD85E81CDE82E7D2
:1005C00090E067DD82ED94E02EDE82E790E061DD71
:1005D00085ED9DED28DE82E790E05BDD80E694EA24
:1005E00022DE82E790E055DD8EEC90E052DD82E77E
:1005F00090E04FDD8AEA90E04CDD8CEA90E049DD46
:1006000081E0F9DD8EEA90E044DD81EB90E041DDB0
:100610008CEA90E03EDD8BE7EEDD8EEA90E039DD9E
:1006200083EB90E036DD8CEA90E033DD85E8E3DDB6
:100630008EEA90E02EDD85EB90E02BDD8CEA90E0F9
:1006400028DD82ED94E0EFDD8EEA90E022DD87EB9D
:1006500090E01FDD8CEA90E01CDD85ED9DEDE3DD93
:100660008EEA90E016DD89EB90E013DD8CEA90E0F5
:1006700010DD80E694EAD7DD8EEA90E00ADD82E7BD
:1006800090E007DD8DED90E004DD82E790E001DD94
:1006900082E1E0DD82E790E0FCDC84E3FCDD82E7E0
:1006A00090E0F7DC84E392E112DE82E790E0F1DC97
:1006B00088E796E52CDE82E790E0EBDC8CEE90E0BC
:1006C000E8DC82E790E0E5DCC0E08BEF90E0E1DC85
:1006D0008CEA90E0DEDC8C2FDEDD8EEA90E0D9DC67
:1006E000CC5CC43091F782E790E0D3DCC0E0D0E08E
:1006F0008DEF90E0CEDC8CEA90E0CBDCCE0107DE23
:100700008EEA90E0C6DCCC5CDD4ECC3926E3D20725
:1007100079F782E790E0BDDC8FEF90E0BADC82E70A
:1007200090E0B7DC82E790E0B4DC8FE79AE126E066
:10073000815090402040E1F700C0000071CEF89455
:02074000FFCFE9
:100742000F1027E80364000A00010048454C4C4F93
:1007520021000D0A002D2D2D2D4E554D4445432DC2
:100762002D2D2D002D2D2D2D4552524F522D2D2D3B
:100772002D004552525B005D3A0043484B002D2D3F
:100782002D2D5641522D2D2D2D0041003D003B2097
:100792000042004300440045004600470048002D47
:1007A2002D2D2D4E554D4845582D2D2D2D002D2DDD
:1007B2002D2D5641524845582D2D2D2D002D2D2DD4
:1007C2002D4E554D42494E2D2D2D2D002D2D2D2DC9
:1007D20056415242494E2D2D2D2D00580059002DC3
:1007E2002D2D2D2D2D2D2D5B476F6F642D6279657B
:0C07F200215D2D2D2D2D2D2D2D2D000015
:00000001FF
