:100000000EC020C01FC01EC01DC01CC01BC01AC017
:1000100019C018C017C016C015C014C013C01124D1
:100020001FBECFE5D2E0DEBFCDBF11E0A0E6B0E05D
:10003000E8E3F7E002C005900D92AC31B107D9F7C3
:10004000E8D178C3DDCF809360000895C398909184
:100050006000992319F000009150FBCF98E080FFD9
:1000600002C0C39A01C0C39820916000222319F0F6
:1000700000002150FBCF8695915089F7C39A80915B
:100080006000882319F000008150FBCF0895CF93C2
:10009000DF93EC018991882311F0D8DFFBCFDF914A
:1000A000CF9108950F931F93CF93DF93CDB7DEB712
:1000B00027970FB6F894DEBF0FBECDBF8C0180E24C
:1000C00089831F82C80117FF04C088279927801BD6
:1000D000910BBE016E5F7F4F30D190E017FF08C0DB
:1000E0002DE2E1E0F0E0EC0FFD1FE80FF91F2083A7
:1000F000212F209527FD019621E030E02C0F3D1F98
:10010000820F931FC4DF27960FB6F894DEBF0FBE91
:10011000CDBFDF91CF911F910F9108950F931F9342
:10012000CF93DF93CDB7DEB727970FB6F894DEBF36
:100130000FBECDBF8C0180E289831F82C80117FFEB
:1001400004C088279927801B910BBE016E5F7F4FEB
:10015000F4D017FF08C0E1E0F0E0EC0FFD1FE80F5E
:10016000F11D8DE28083CE01019691DF27960FB6B7
:10017000F894DEBF0FBECDBFDF91CF911F910F91DD
:100180000895CF93DF9300D000D000D0CDB7DEB775
:100190001E82BE016F5F7F4FD0D021E030E02C0F78
:1001A0003D1F280F311DC90172DF26960FB6F89446
:1001B000DEBF0FBECDBFDF91CF910895CF93DF9308
:1001C00000D000D000D0CDB7DEB71E82BE016F5F79
:1001D0007F4FB3D0CE0101965ADF26960FB6F89422
:1001E000DEBF0FBECDBFDF91CF910895CF93DF93D8
:1001F00000D000D01F92CDB7DEB71D82BE016F5F69
:100200007F4F90E0D4D0CE01039641DF0F900F9046
:100210000F900F900F90DF91CF910895CF93DF93C0
:1002200000D000D01F92CDB7DEB71D82BE016F5F38
:100230007F4FBDD0CE0101962ADF0F900F900F9017
:100240000F900F90DF91CF910895CF93DF93CDB7AB
:10025000DEB761970FB6F894DEBF0FBECDBF198A27
:10026000BE016F5F7F4F90E0B9D021E030E02C0FEE
:100270003D1F280F311DC9010ADF61960FB6F894A2
:10028000DEBF0FBECDBFDF91CF910895CF93DF9337
:10029000CDB7DEB761970FB6F894DEBF0FBECDBF06
:1002A000198ABE016F5F7F4F90E098D0CE0109960A
:1002B000EEDE61960FB6F894DEBF0FBECDBFDF91C4
:1002C000CF910895CF93DF93CDB7DEB761970FB687
:1002D000F894DEBF0FBECDBF198ABE016F5F7F4F9E
:1002E0007DD021E030E02C0F3D1F280F311DC901CA
:1002F000CEDE61960FB6F894DEBF0FBECDBFDF91A4
:10030000CF910895CF93DF93CDB7DEB761970FB646
:10031000F894DEBF0FBECDBF198ABE016F5F7F4F5D
:100320005DD0CE010196B3DE61960FB6F894DEBFC4
:100330000FBECDBFDF91CF910895CF93DF93CDB79F
:10034000DEB72A970FB6F894DEBF0FBECDBFAC0163
:100350008AE0E1E6F0E0DE01119601900D928A95C7
:10036000E1F7FE013196DB0120E084E061917191BB
:1003700090E04617570720F09F5F461B570BF9CFB9
:10038000843039F4911104C0243011F090EF01C091
:10039000822F905D9D932F5F253041F72A960FB6EF
:1003A000F894DEBF0FBECDBFDF91CF910895AC01B1
:1003B00024E0942F9F709A3010F4905D01C0995CF6
:1003C000FB01938384E0569547958A95E1F7215088
:1003D000615071092111EDCF84E00895FC0120E006
:1003E0008FE040E050E8E417F50730F0E41BF50B30
:1003F0008F3021F4822F02C090E001C091E0905D27
:10040000DB019D93BD01569547952F5F203159F72C
:100410000895BB9AC39A8AE319DE89E217DE80E267
:1004200015DE8BE690E033DE82E790E030DEC1E45B
:100430008C2F0CDECF5FCB35D9F782E790E027DE3B
:1004400085E790E024DE82E790E021DE8BE790E014
:1004500029DE82E790E01BDE85E89FEF23DE82E75E
:1004600090E015DE87ED91E159DE82E790E00FDE46
:1004700089E29EEE53DE82E790E009DE8BE790E0B2
:1004800080DE82E790E003DE87ED91E197DE82E790
:1004900090E0FDDD84E890E0FADD82E790E0F7DDB2
:1004A00082E990E0F4DD8BE790E0FCDD87E990E005
:1004B000EEDD8AE990E0EBDD82E790E0E8DD8EE9B1
:1004C00090E0E5DD82E790E0E2DD8AEA90E0DFDDC2
:1004D0008CEA90E0DCDD8BE790E0E4DD8EEA90E0F2
:1004E000D6DD81EB90E0D3DD8CEA90E0D0DD8EE6C6
:1004F00092EBD8DD8EEA90E0CADD83EB90E0C7DDB9
:100500008CEA90E0C4DD8BE79CEFCCDD8EEA90E0D6
:10051000BEDD85EB90E0BBDD8CEA90E0B8DD80E6E7
:1005200094EAC0DD8EEA90E0B2DD87EB90E0AFDDCB
:100530008CEA90E0ACDD8BE790E023DE8EEA90E081
:10054000A6DD89EB90E0A3DD8CEA90E0A0DD8EE6ED
:1005500092EB17DE8EEA90E09ADD8BEB90E097DD70
:100560008CEA90E094DD8BE79CEF0BDE8EEA90E066
:100570008EDD8DEB90E08BDD8CEA90E088DD80E60F
:1005800094EAFFDD8EEA90E082DD82E790E07FDD95
:100590008FEB90E07CDD82E790E079DD81E026DE84
:1005A00082E790E074DD8AEE21DE82E790E06FDD85
:1005B00085E81CDE82E790E06ADD82ED94E02EDEC5
:1005C00082E790E064DD85ED9DED28DE82E790E036
:1005D0005EDD80E694EA22DE82E790E058DD8EEC74
:1005E00090E055DD82E790E052DD8AEA90E04FDD51
:1005F0008CEA90E04CDD81E0F9DD8EEA90E047DDA9
:1006000081EB90E044DD8CEA90E041DD8BE7EEDDAC
:100610008EEA90E03CDD83EB90E039DD8CEA90E0FF
:1006200036DD85E8E3DD8EEA90E031DD85EB90E0B4
:100630002EDD8CEA90E02BDD82ED94E0EFDD8EEA9A
:1006400090E025DD87EB90E022DD8CEA90E01FDD75
:1006500085ED9DEDE3DD8EEA90E019DD89EB90E01C
:1006600016DD8CEA90E013DD80E694EAD7DD8EEAB1
:1006700090E00DDD82E790E00ADD8DED90E007DD92
:1006800082E790E004DD82E1E0DD82E790E0FFDCDC
:1006900084E3FCDD82E790E0FADC84E392E112DEA1
:1006A00082E790E0F4DC88E796E52CDE82E790E0D4
:1006B000EEDC8CEE90E0EBDC82E790E0E8DCC0E082
:1006C0008BEF90E0E4DC8CEA90E0E1DC8C2FDEDD67
:1006D0008EEA90E0DCDCCC5CC43091F782E790E0FD
:1006E000D6DCC0E0D0E08DEF90E0D1DC8CEA90E089
:1006F000CEDCCE0107DE8EEA90E0C9DCCC5CDD4EBC
:10070000CC3926E3D20779F782E790E0C0DC8FEF9F
:1007100090E0BDDC82E790E0BADC82E790E0B7DCF5
:100720008FE79AE126E0815090402040E1F700C039
:08073000000071CEF894FFCF28
:100738000F1027E80364000A00010048454C4C4F9D
:1007480021000D0A002D2D2D2D4E554D4445432DCC
:100758002D2D2D002D2D2D2D4552524F522D2D2D45
:100768002D004552525B005D3A0043484B002D2D49
:100778002D2D5641522D2D2D2D0041003D003B20A1
:100788000042004300440045004600470048002D51
:100798002D2D2D4E554D4845582D2D2D2D002D2DE7
:1007A8002D2D5641524845582D2D2D2D002D2D2DDE
:1007B8002D4E554D42494E2D2D2D2D002D2D2D2DD3
:1007C80056415242494E2D2D2D2D00580059002DCD
:1007D8002D2D2D2D2D2D2D5B476F6F642D62796585
:0C07E800215D2D2D2D2D2D2D2D2D00001F
:00000001FF
