:100000000EC020C01FC01EC01DC01CC01BC01AC017
:1000100019C018C017C016C015C014C013C01124D1
:100020001FBECFE5D2E0DEBFCDBF10E0A0E6B0E05E
:10003000E2EBF5E002C005900D92A23CB107D9F7C2
:10004000EDD1B5C2DDCF809360000895F894C398D8
:1000500090916000992319F000009150FBCF98E037
:1000600080FF02C0C39A01C0C39820916000222380
:1000700019F000002150FBCF8695915089F7C39A63
:1000800080916000882319F000008150FBCF7894A4
:100090000895CF93DF93EC018991882311F0D6DF87
:1000A000FBCFDF91CF9108950F931F93CF93DF93F1
:1000B000CDB7DEB727970FB6F894DEBF0FBECDBF22
:1000C0008C0180E289831F82C80117FF04C0882742
:1000D0009927801B910BBE016E5F7F4F33D1282F74
:1000E00030E017FF08C08DE2E1E0F0E0EC0FFD1F0B
:1000F000E20FF31F8083812F8095F90187FD3196F0
:10010000CF0121E030E02C0F3D1F820F931FC1DF94
:1001100027960FB6F894DEBF0FBECDBFDF91CF910B
:100120001F910F9108950F931F93CF93DF93CDB736
:10013000DEB727970FB6F894DEBF0FBECDBF8C0198
:1001400080E289831F82C80117FF04C0882799278E
:10015000801B910BBE016E5F7F4FF4D017FF08C06C
:10016000E1E0F0E0EC0FFD1FE80FF11D8DE2808370
:10017000CE0101968EDF27960FB6F894DEBF0FBE34
:10018000CDBFDF91CF911F910F910895CF93DF9352
:1001900000D000D000D0CDB7DEB71E82BE016F5FA9
:1001A0007F4FD0D021E030E02C0F3D1F280F311DB4
:1001B000C9016FDF26960FB6F894DEBF0FBECDBF24
:1001C000DF91CF910895CF93DF9300D000D000D07E
:1001D000CDB7DEB71E82BE016F5F7F4FB3D0CE01B9
:1001E000019657DF26960FB6F894DEBF0FBECDBF3F
:1001F000DF91CF910895CF93DF9300D000D01F926D
:10020000CDB7DEB71D82BE016F5F7F4F90E0D4D0C7
:10021000CE0103963EDF0F900F900F900F900F903E
:10022000DF91CF910895CF93DF9300D000D01F923C
:10023000CDB7DEB71D82BE016F5F7F4FBDD0CE014F
:10024000019627DF0F900F900F900F900F90DF9186
:10025000CF910895CF93DF93CDB7DEB761970FB6F7
:10026000F894DEBF0FBECDBF198ABE016F5F7F4F0E
:1002700090E0B9D021E030E02C0F3D1F280F311D58
:10028000C90107DF61960FB6F894DEBF0FBECDBF80
:10029000DF91CF910895CF93DF93CDB7DEB761970C
:1002A0000FB6F894DEBF0FBECDBF198ABE016F5FD7
:1002B0007F4F90E098D0CE010996EBDE61960FB6A5
:1002C000F894DEBF0FBECDBFDF91CF910895CF93DD
:1002D000DF93CDB7DEB761970FB6F894DEBF0FBEE0
:1002E000CDBF198ABE016F5F7F4F7DD021E030E026
:1002F0002C0F3D1F280F311DC901CBDE61960FB6B3
:10030000F894DEBF0FBECDBFDF91CF910895CF939C
:10031000DF93CDB7DEB761970FB6F894DEBF0FBE9F
:10032000CDBF198ABE016F5F7F4F5DD0CE010196B0
:10033000B0DE61960FB6F894DEBF0FBECDBFDF9181
:10034000CF910895CF93DF93CDB7DEB72A970FB63D
:10035000F894DEBF0FBECDBFAC018AE0E1E6F0E06D
:10036000DE01119601900D928A95E1F7FE0131961A
:10037000DB0120E084E06191719190E0461757071E
:1003800020F09F5F461B570BF9CF843039F4911151
:1003900004C0243011F090EF01C0822F905D9D9336
:1003A0002F5F253041F72A960FB6F894DEBF0FBEB7
:1003B000CDBFDF91CF910895AC01FB01339624E0CE
:1003C000942F9F709A3010F4905D01C0995C9083D7
:1003D00084E0569547958A95E1F721503197211190
:1003E000EFCF84E00895FC0120E08FE040E050E88A
:1003F000E417F50730F0E41BF50B8F3021F4822F62
:1004000002C090E001C091E0905DDB019D93BD01D1
:10041000569547952F5F203159F70895BB9AC39A97
:10042000D0E081E413DE8EEB90E033DE8BE690E0EB
:1004300030DE81E090E038DE8EEB90E02ADE82E074
:1004400090E071DE8EEB90E024DE84E790E021DE28
:100450008BE790E029DE8EEB90E01BDE87E790E0F3
:1004600018DE8EE692EB20DE8EEB90E012DE8AE75D
:1004700090E00FDE8BE79CEF17DE8EEB90E009DE5D
:100480008DE790E006DE80E694EA0EDE8EEB90E0EB
:1004900000DE80E890E0FDDD8BE790E077DE8EEB1C
:1004A00090E0F7DD83E890E0F4DD8EE692EB6EDE1F
:1004B0008EEB90E0EEDD86E890E0EBDD8BE79CEFE5
:1004C00065DE8EEB90E0E5DD89E890E0E2DD80E638
:1004D00094EA5CDE8EEB90E0DCDD8CE890E0D9DD28
:1004E0008BE790E020DE8EEB90E0D3DD8FE890E0AC
:1004F000D0DD8EE692EB17DE8EEB90E0CADD82E96E
:1005000090E0C7DD8BE79CEF0EDE8EEB90E0C1DD67
:1005100085E990E0BEDD80E694EA05DE8EEB90E0B2
:10052000B8DD88E990E0B5DD8BE790E04CDE8EEB3E
:1005300090E0AFDD8BE990E0ACDD8EE692EB43DE40
:100540008EEB90E0A6DD8EE990E0A3DD8BE79CEFDB
:100550003ADE8EEB90E09DDD81EA90E09ADD80E668
:1005600094EA31DE8EEB90E094DD8D2F90E00EDE8C
:1005700084EA90E08EDDC0E080E28C0F67DD8C2F96
:100580008F718F3119F48EEB90E083DDCF5FC03E29
:1005900099F788EA90E07DDD2FE78AE196E0215027
:1005A00080409040E1F700C00000DF5F3ACFF89450
:0205B000FFCF7B
:1005B2000F1027E80364000A00010048656C6C6FA5
:1005C200210D0A00413D00423D00433D00443D00F3
:1005D200453D00463D00473D00483D00493D004A3B
:1005E2003D004B3D004C3D004D3D004E3D004F3D1A
:1005F20000503D003A0D0A000D0A2D2D2D2D2047E9
:100602006F6F642D627965202D2D2D2D0D0A0D0A37
:020612000000E6
:00000001FF
