:100000000EC020C01FC01EC01DC01CC01BC01AC017
:1000100019C018C017C016C015C014C013C01124D1
:100020001FBECFE5D2E0DEBFCDBF10E0A0E6B0E05E
:10003000E6E2F5E002C005900D92AE3BB107D9F7BC
:10004000A7D16FC2DDCF809360000895F894C39864
:1000500090916000992319F000009150FBCF98E037
:1000600080FF02C0C39A01C0C39820916000222380
:1000700019F000002150FBCF8695915089F7C39A63
:1000800080916000882319F000008150FBCF7894A4
:100090000895CF93DF93EC018991882311F0D6DF87
:1000A000FBCFDF91CF9108950F931F93CF93DF93F1
:1000B000CDB7DEB727970FB6F894DEBF0FBECDBF22
:1000C0008C0180E289831F82C80117FF04C0882742
:1000D0009927801B910BBE016E5F7F4F04D1282FA3
:1000E00030E017FF08C08DE2E1E0F0E0EC0FFD1F0B
:1000F000E20FF31F8083812F8095F90187FD3196F0
:10010000CF0121E030E02C0F3D1F820F931FC1DF94
:1001100027960FB6F894DEBF0FBECDBFDF91CF910B
:100120001F910F9108950F931F93CF93DF93CDB736
:10013000DEB727970FB6F894DEBF0FBECDBF8C0198
:1001400080E289831F82C80117FF04C0882799278E
:10015000801B910BBE016E5F7F4FC5D017FF08C09B
:10016000E1E0F0E0EC0FFD1FE80FF11D8DE2808370
:10017000CE0101968EDF27960FB6F894DEBF0FBE34
:10018000CDBFDF91CF911F910F910895CF93DF9352
:1001900000D000D000D0CDB7DEB71E82BE016F5FA9
:1001A0007F4FA1D021E030E02C0F3D1F280F311DE3
:1001B000C9016FDF26960FB6F894DEBF0FBECDBF24
:1001C000DF91CF910895CF93DF9300D000D000D07E
:1001D000CDB7DEB71E82BE016F5F7F4F84D0CE01E8
:1001E000019657DF26960FB6F894DEBF0FBECDBF3F
:1001F000DF91CF910895CF93DF93CDB7DEB76197AD
:100200000FB6F894DEBF0FBECDBF198ABE016F5F77
:100210007F4F90E0A2D021E030E02C0F3D1F280F4F
:10022000311DC90136DF61960FB6F894DEBF0FBEEF
:10023000CDBFDF91CF910895CF93DF93CDB7DEB7D8
:1002400061970FB6F894DEBF0FBECDBF198ABE010D
:100250006F5F7F4F90E081D0CE0109961ADF6196E3
:100260000FB6F894DEBF0FBECDBFDF91CF910895DA
:10027000CF93DF93CDB7DEB761970FB6F894DEBFAB
:100280000FBECDBF198ABE016F5F7F4F66D021E0E0
:1002900030E02C0F3D1F280F311DC901FADE619699
:1002A0000FB6F894DEBF0FBECDBFDF91CF9108959A
:1002B000CF93DF93CDB7DEB761970FB6F894DEBF6B
:1002C0000FBECDBF198ABE016F5F7F4F46D0CE01F2
:1002D0000196DFDE61960FB6F894DEBF0FBECDBF8C
:1002E000DF91CF910895CF93DF93CDB7DEB72A97F3
:1002F0000FB6F894DEBF0FBECDBFAC018AE0E1E6D9
:10030000F0E0DE01119601900D928A95E1F7FE0171
:100310003196DB0120E084E06191719190E0461715
:10032000570720F09F5F461B570BF9CF843039F4F5
:10033000911104C0243011F090EF01C0822F905D24
:100340009D932F5F253041F72A960FB6F894DEBFB4
:100350000FBECDBFDF91CF910895FC0120E08FE06B
:1003600040E050E8E417F50730F0E41BF50B8F3060
:1003700021F4822F02C090E001C091E0905DDB018A
:100380009D93BD01569547952F5F203159F70895EC
:10039000BB9AC39AD0E081E459DE8BEB90E079DE22
:1003A0008BE690E076DE81E090E07EDE8BEB90E005
:1003B00070DE82E090E0B7DE8BEB90E06ADE84E7EF
:1003C00090E067DE8BE790E06FDE8BEB90E061DE24
:1003D00087E790E05EDE8EE692EB66DE8BEB90E0E8
:1003E00058DE8AE790E055DE8BE79CEF5DDE8BEB15
:1003F00090E04FDE8DE790E04CDE80E694EA54DE3C
:100400008BEB90E046DE80E890E043DE8BE790E007
:10041000BDDE8BEB90E03DDE83E890E03ADE8EE6D9
:1004200092EBB4DE8BEB90E034DE86E890E031DED8
:100430008BE79CEFABDE8BEB90E02BDE87E790E069
:1004400028DE80E694EAA2DE8BEB90E022DE89E8EB
:1004500090E01FDE8BE790E066DE8BEB90E019DE2C
:100460008CE890E016DE8EE692EB5DDE8BEB90E0A2
:1004700010DE8FE890E00DDE8BE79CEF54DE8BEB17
:1004800090E007DE82E990E004DE80E694EA4BDE4D
:100490008BEB90E0FEDD85E990E0FBDD8BE790E003
:1004A00092DE8BEB90E0F5DD88E990E0F2DD8EE600
:1004B00092EB89DE8BEB90E0ECDD8BE990E0E9DDFF
:1004C0008BE79CEF80DE8BEB90E0E3DD8EE990E044
:1004D000E0DD80E694EA77DE8BEB90E0DADD8D2FCD
:1004E00090E054DE81EA90E0D4DDC0E080E28C0F41
:1004F000ADDD8C2F8F718F3119F48BEB90E0C9DD5E
:10050000CF5FCF3D99F785EA90E0C3DD2FE78AE121
:1005100096E0215080409040E1F700C00000DF5F8E
:060520003ACFF894FFCF72
:100526000F1027E80364000A00010048656C6C6F31
:10053600210D0A00413D00423D00433D00443D007F
:10054600453D00463D00473D004A3D004B3D004DC0
:100556003D004E3D00503D00513D00533D00543D91
:10056600003A0D0A000D0A2D2D2D2D20476F6F64C0
:0E0576002D627965202D2D2D2D0D0A0D0A0008
:00000001FF
