:100000000EC020C01FC01EC01DC01CC01BC01AC017
:1000100019C018C017C016C015C014C013C01124D1
:100020001FBECFE5D2E0DEBFCDBF10E0A0E6B0E05E
:10003000EAE0F4E002C005900D92A43AB107D9F7C6
:1000400002D0E1C1DDCF0F931F93CF93DF93BB9A13
:10005000C39A00E0C9E1D0E081E4D1D08AE0CFD0FA
:1000600080E690E0E6D081E090E05AD18AE0C7D007
:1000700082E090E025D18AE0C2D088E690E0D9D035
:100080008BE790E04DD18AE0BAD08BE690E0D1D0FA
:100090008EE692EB45D18AE0B2D088E690E0C9D0F6
:1000A0008AE59DEF3DD18AE0AAD08BE690E0C1D0F1
:1000B00087EC9FEC35D18AE0A2D088E690E0B9D0F9
:1000C0008BE790E0DED08AE09AD08BE690E0B1D06A
:1000D0008EE692EBD6D08AE092D088E690E0A9D066
:1000E0008AE59DEFCED08AE08AD08BE690E0A1D061
:1000F00087EC9FECC6D08AE082D08EE690E099D063
:1001000081E090E0DDD08AE07AD081E790E091D084
:1001100087E190E0D5D08AE072D084E790E089D082
:100120008EE692EBCDD08AE06AD08EE690E081D068
:1001300087EF9FEFC5D08AE062D081E790E079D069
:1001400082EB9FEFBDD08AE05AD084E790E071D077
:1001500080E694EAB5D08AE052D08EE690E069D08D
:1001600081E090E072D08AE04AD081E790E061D0EF
:1001700087E190E06AD08AE042D084E790E059D0ED
:100180008EE692EB62D08AE03AD08EE690E051D0D3
:1001900087EF9FEF5AD08AE032D081E790E049D0D4
:1001A00082EB9FEF52D08AE02AD084E790E041D0E2
:1001B00080E694EA4AD08AE022D08AE020D0802FDC
:1001C00090E07ED087E790E034D010E2812F17D006
:1001D00080E215D01F5F1F37C9F78AE790E029D06A
:1001E0008CE790E026D087E890E023D080E29EE480
:1001F000FE013197F1F70197D9F70F5F2DCFC39823
:1002000097E100009150E9F720E080FF02C0C39A17
:1002100001C0C39897E100009150E9F72F5F2830A3
:1002200011F08695F2CFC39A87E100008150E9F77B
:100230000895CF93DF93EC0102C02196E0DF88811F
:100240008823D9F7DF91CF9108950F931F93DF9300
:10025000CF9300D000D000D0CDB7DEB71E828E0184
:100260000F5F1F4FB8019BD0C801E3DF26960FB682
:10027000F894DEBF0FBECDBFCF91DF911F910F91DC
:1002800008950F931F93DF93CF9300D000D000D039
:10029000CDB7DEB71E828E010F5F1F4FB8017FD032
:1002A0009801280F311DC901C4DF26960FB6F894B6
:1002B000DEBF0FBECDBFCF91DF911F910F9108958B
:1002C0000F931F93DF93CF93CDB7DEB727970FB66A
:1002D000F894DEBF0FBECDBF8C0180E289831F8200
:1002E000C80117FF04C088279927801B910BBE0106
:1002F0006E5F7F4F54D017FF05C0FE01E80FF11D60
:100300008DE28183CE01019694DF27960FB6F89493
:10031000DEBF0FBECDBFCF91DF911F910F9108952A
:100320000F931F93DF93CF93CDB7DEB727970FB609
:10033000F894DEBF0FBECDBF8C0180E289831F829F
:10034000C80117FF04C088279927801B910BBE01A5
:100350006E5F7F4F24D0982F17FF05C0FE01E80F76
:10036000F11D8DE28183212F332727FD30952095C4
:1003700030952227330F221F3327290F311DCE013D
:100380000196820F931F55DF27960FB6F894DEBFB4
:100390000FBECDBFCF91DF911F910F9108950F93A5
:1003A0001F93CF93DF938B01CAE9D0E034E040E0A4
:1003B00050E01AC02F5F8A0F9B1F8E179F07D0F740
:1003C000343039F4222311F0362F03C0643009F0A1
:1003D00020EFF801E40FF51F205D20834F5F5F4F92
:1003E00022964530510549F0642FE881F98120E0DB
:1003F000AA27BB27AE1BBF0BE0CF832FDF91CF9186
:0A0400001F910F910895F894FFCFAB
:10040A0048656C6C6F210A00413D00423D00583D31
:10041A0000593D005A3D003A20000A00476F6F64B8
:10042A002D6279652E0A002D2D2D2D2D2D2D2D2D88
:10043A002D2D2D2D2D2D2D0A0A001027E8036400DD
:04044A000A000100A3
:00000001FF
