:100000000EC020C01FC01EC01DC01CC01BC01AC017
:1000100019C018C017C016C015C014C013C01124D1
:100020001FBECFE5D2E0DEBFCDBF10E0A0E6B0E05E
:10003000E8ECF1E002C005900D92A039B107D9F7C4
:1000400002D0C0C0DDCF0F931F93CF93DF93BB9A35
:10005000C39A00E0C9E1D0E0802F90E044D08AE06C
:100060001CD08DE01AD010E2812F17D080E215D07D
:100070001F5F1F37C9F780E690E029D083E690E044
:1000800026D080E690E023D080E29EE4FE01319706
:10009000F1F70197D9F70F5FDFCFC39897E1000021
:1000A0009150E9F720E080FF02C0C39A01C0C398D5
:1000B00097E100009150E9F72F5F283011F0869505
:1000C000F2CFC39A87E100008150E9F70895CF93FA
:1000D000DF93EC0102C02196E0DF88818823D9F705
:1000E000DF91CF9108950F931F93DF93CF9300D0AB
:1000F00000D000D0CDB7DEB71E828E010F5F1F4F3C
:10010000B8012CD0C801E3DF26960FB6F894DEBF05
:100110000FBECDBFCF91DF911F910F9108950F9327
:100120001F93DF93CF9300D000D000D0CDB7DEB7C0
:100130001E828E010F5F1F4FB80110D09801280F4B
:10014000311DC901C4DF26960FB6F894DEBF0FBE7D
:10015000CDBFCF91DF911F910F9108950F931F9302
:10016000CF93DF938B01C6E8D0E034E040E050E06D
:100170001AC02F5F8A0F9B1F8E179F07D0F734304E
:1001800039F4222311F0362F03C0643009F020EF38
:10019000F801E40FF51F205D20834F5F5F4F22962B
:1001A0004530510549F0642FE881F98120E0AA2704
:1001B000BB27AE1BBF0BE0CF832FDF91CF911F91E9
:0801C0000F910895F894FFCFA0
:1001C8000A0D0048656C6C6F2120486F77206172BA
:1001D8006520796F753F20476F6F642D6279652EB2
:1001E800203A290A0D001027E80364000A000100DC
:00000001FF
