:100000000EC020C01FC01EC01DC01CC01BC01AC017
:1000100019C018C017C016C015C014C013C01124D1
:100020001FBECFE5D2E0DEBFCDBF10E0A0E6B0E05E
:10003000ECE3F2E002C005900D92A23AB107D9F7C5
:1000400002D0FAC0DDCF0F931F93CF93DF93BB9AFB
:10005000C39A00E0C9E1D0E081E459D08AE057D0EA
:1000600080E690E06ED081E090E093D08AE04FD0BF
:1000700082E090E072D08AE04AD088E690E061D0D9
:100080008BE790E086D08AE042D08BE690E059D0B2
:100090008EE692EB7ED08AE03AD08EE690E051D0A8
:1000A00081E090E05AD08AE032D081E790E049D0F8
:1000B00087E190E052D08AE02AD081E790E041D0F9
:1000C0008EE692EB4AD08AE022D08AE020D0802FC0
:1000D00090E043D084E790E034D010E2812F17D035
:1000E00080E215D01F5F1F37C9F787E790E029D05E
:1000F00089E790E026D084E890E023D080E29EE477
:10010000FE013197F1F70197D9F70F5FA5CFC3989B
:1001100097E100009150E9F720E080FF02C0C39A08
:1001200001C0C39897E100009150E9F72F5F283094
:1001300011F08695F2CFC39A87E100008150E9F76C
:100140000895CF93DF93EC0102C02196E0DF888110
:100150008823D9F7DF91CF9108950F931F93DF93F1
:10016000CF9300D000D000D0CDB7DEB71E828E0175
:100170000F5F1F4FB8012CD0C801E3DF26960FB6E2
:10018000F894DEBF0FBECDBFCF91DF911F910F91CD
:1001900008950F931F93DF93CF9300D000D000D02A
:1001A000CDB7DEB71E828E010F5F1F4FB80110D092
:1001B0009801280F311DC901C4DF26960FB6F894A7
:1001C000DEBF0FBECDBFCF91DF911F910F9108957C
:1001D0000F931F93CF93DF938B01C7E9D0E034E0F7
:1001E00040E050E01AC02F5F8A0F9B1F8E179F07B9
:1001F000D0F7343039F4222311F0362F03C06430A5
:1002000009F020EFF801E40FF51F205D20834F5F18
:100210005F4F22964530510549F0642FE881F981FE
:1002200020E0AA27BB27AE1BBF0BE0CF832FDF91B7
:0C023000CF911F910F910895F894FFCF1B
:10023C0048656C6C6F210A00413D00423D00583D01
:10024C0000593D003A20000A00476F6F642D627917
:10025C00652E0A002D2D2D2D2D2D2D2D2D2D2D2DD9
:10026C002D2D2D2D0A0A001027E80364000A000129
:02027C00000080
:00000001FF
