:100000000EC020C01FC01EC01DC01CC01BC01AC017
:1000100019C018C017C016C015C014C013C01124D1
:100020001FBECFE5D2E0DEBFCDBF10E0A0E6B0E05E
:10003000E0E0F5E002C005900D92A03BB107D9F7D2
:10004000EDD15CC2DDCF809360000895F894C39831
:1000500090916000992319F000009150FBCF98E037
:1000600080FF02C0C39A01C0C39820916000222380
:1000700019F000002150FBCF8695915089F7C39A63
:1000800080916000882319F000008150FBCF7894A4
:100090000895CF93DF93EC018991882311F0D6DF87
:1000A000FBCFDF91CF9108950F931F93CF93DF93F1
:1000B000CDB7DEB727970FB6F894DEBF0FBECDBF22
:1000C0008C0180E289831F82C80117FF04C0882742
:1000D0009927801B910BBE016E5F7F4F33D1282F74
:1000E00030E017FF08C08DE2E1E0F0E0EC0FFD1F0B
:1000F000E20FF31F8083812F8095F90187FD3196F0
:10010000CF0121E030E02C0F3D1F820F931FC1DF94
:1001100027960FB6F894DEBF0FBECDBFDF91CF910B
:100120001F910F9108950F931F93CF93DF93CDB736
:10013000DEB727970FB6F894DEBF0FBECDBF8C0198
:1001400080E289831F82C80117FF04C0882799278E
:10015000801B910BBE016E5F7F4FF4D017FF08C06C
:10016000E1E0F0E0EC0FFD1FE80FF11D8DE2808370
:10017000CE0101968EDF27960FB6F894DEBF0FBE34
:10018000CDBFDF91CF911F910F910895CF93DF9352
:1001900000D000D000D0CDB7DEB71E82BE016F5FA9
:1001A0007F4FD0D021E030E02C0F3D1F280F311DB4
:1001B000C9016FDF26960FB6F894DEBF0FBECDBF24
:1001C000DF91CF910895CF93DF9300D000D000D07E
:1001D000CDB7DEB71E82BE016F5F7F4FB3D0CE01B9
:1001E000019657DF26960FB6F894DEBF0FBECDBF3F
:1001F000DF91CF910895CF93DF9300D000D01F926D
:10020000CDB7DEB71D82BE016F5F7F4F90E0D4D0C7
:10021000CE0103963EDF0F900F900F900F900F903E
:10022000DF91CF910895CF93DF9300D000D01F923C
:10023000CDB7DEB71D82BE016F5F7F4FBDD0CE014F
:10024000019627DF0F900F900F900F900F90DF9186
:10025000CF910895CF93DF93CDB7DEB761970FB6F7
:10026000F894DEBF0FBECDBF198ABE016F5F7F4F0E
:1002700090E0B9D021E030E02C0F3D1F280F311D58
:10028000C90107DF61960FB6F894DEBF0FBECDBF80
:10029000DF91CF910895CF93DF93CDB7DEB761970C
:1002A0000FB6F894DEBF0FBECDBF198ABE016F5FD7
:1002B0007F4F90E098D0CE010996EBDE61960FB6A5
:1002C000F894DEBF0FBECDBFDF91CF910895CF93DD
:1002D000DF93CDB7DEB761970FB6F894DEBF0FBEE0
:1002E000CDBF198ABE016F5F7F4F7DD021E030E026
:1002F0002C0F3D1F280F311DC901CBDE61960FB6B3
:10030000F894DEBF0FBECDBFDF91CF910895CF939C
:10031000DF93CDB7DEB761970FB6F894DEBF0FBE9F
:10032000CDBF198ABE016F5F7F4F5DD0CE010196B0
:10033000B0DE61960FB6F894DEBF0FBECDBFDF9181
:10034000CF910895CF93DF93CDB7DEB72A970FB63D
:10035000F894DEBF0FBECDBFAC018AE0E1E6F0E06D
:10036000DE01119601900D928A95E1F7FE0131961A
:10037000DB0120E084E06191719190E0461757071E
:1003800020F09F5F461B570BF9CF843039F4911151
:1003900004C0243011F090EF01C0822F905D9D9336
:1003A0002F5F253041F72A960FB6F894DEBF0FBEB7
:1003B000CDBFDF91CF910895AC01FB01339624E0CE
:1003C000942F9F709A3010F4905D01C0995C9083D7
:1003D00084E0569547958A95E1F721503197211190
:1003E000EFCF84E00895FC0120E08FE040E050E88A
:1003F000E417F50730F0E41BF50B8F3021F4822F62
:1004000002C090E001C091E0905DDB019D93BD01D1
:10041000569547952F5F203159F70895BB9AC39A97
:100420008AE314DE89E212DE80E210DE8BE690E0E1
:1004300030DE82E790E02DDEC1E48C2F07DECF5F57
:10044000CB35D9F782E790E024DE85E790E021DE26
:1004500082E790E01EDE8BE790E026DE82E790E008
:1004600018DE85E89FEF20DE82E790E012DE87ED60
:1004700091E159DE82E790E00CDE89E29EEE53DEE8
:1004800082E790E006DE8BE790E080DE82E790E096
:1004900000DE87ED91E197DE82E790E0FADD84E807
:1004A00090E0F7DD82E790E0F4DD82E1D3DE82E7E1
:1004B00090E0EFDD84E3EFDE82E790E0EADD84E3C5
:1004C00092E105DF82E790E0E4DD88E796E51FDF53
:1004D00082E790E0DEDD83E990E0DBDD82E790E01B
:1004E000D8DD82E790E0D5DD2FE78AE196E0215064
:1004F00080409040E1F700C0000092CFF894FFCF19
:100500000F1027E80364000A00010048454C4C4FD7
:1005100021000D0A002D2D2D2D4E554D4445432D06
:100520002D2D2D002D2D2D2D4E554D42494E2D2D6D
:100530002D2D002D2D2D2D2D2D2D2D5B476F6F6415
:100540002D627965215D2D2D2D2D2D2D2D2D000058
:00000001FF
