:100000000EC020C01FC01EC01DC01CC01BC01AC017
:1000100019C018C017C016C015C014C013C01124D1
:100020001FBECFE5D2E0DEBFCDBF10E0A0E6B0E05E
:10003000E0E6F4E002C005900D92AC36B107D9F7C6
:10004000EAD10CC2DDCF809360000895F894C39884
:1000500090916000992319F000009150FBCF98E037
:1000600080FF02C0C39A01C0C39820916000222380
:1000700019F000002150FBCF8695915089F7C39A63
:1000800080916000882319F000008150FBCF7894A4
:100090000895CF93DF93EC018991882311F0D6DF87
:1000A000FBCFDF91CF9108950F931F93CF93DF93F1
:1000B000CDB7DEB727970FB6F894DEBF0FBECDBF22
:1000C0008C0180E289831F82C80117FF04C0882742
:1000D0009927801B910BBE016E5F7F4F30D190E05E
:1000E00017FF08C02DE2E1E0F0E0EC0FFD1FE80F84
:1000F000F91F2083212F209527FD019621E030E074
:100100002C0F3D1F820F931FC4DF27960FB6F89464
:10011000DEBF0FBECDBFDF91CF911F910F9108952C
:100120000F931F93CF93DF93CDB7DEB727970FB60B
:10013000F894DEBF0FBECDBF8C0180E289831F82A1
:10014000C80117FF04C088279927801B910BBE01A7
:100150006E5F7F4FF4D017FF08C0E1E0F0E0EC0FD6
:10016000FD1FE80FF11D8DE28083CE01019691DF26
:1001700027960FB6F894DEBF0FBECDBFDF91CF91AB
:100180001F910F910895CF93DF9300D000D000D03E
:10019000CDB7DEB71E82BE016F5F7F4FD0D021E0AA
:1001A00030E02C0F3D1F280F311DC90172DF26964C
:1001B0000FB6F894DEBF0FBECDBFDF91CF9108958B
:1001C000CF93DF9300D000D000D0CDB7DEB71E8232
:1001D000BE016F5F7F4FB3D0CE0101965ADF2696E6
:1001E0000FB6F894DEBF0FBECDBFDF91CF9108955B
:1001F000CF93DF9300D000D01F92CDB7DEB71D8222
:10020000BE016F5F7F4F90E0D4D0CE01039641DFF7
:100210000F900F900F900F900F90DF91CF91089556
:10022000CF93DF9300D000D01F92CDB7DEB71D82F1
:10023000BE016F5F7F4FBDD0CE0101962ADF0F90C8
:100240000F900F900F900F90DF91CF910895CF9363
:10025000DF93CDB7DEB761970FB6F894DEBF0FBE60
:10026000CDBF198ABE016F5F7F4F90E0B9D021E00A
:1002700030E02C0F3D1F280F311DC9010ADF6196A8
:100280000FB6F894DEBF0FBECDBFDF91CF910895BA
:10029000CF93DF93CDB7DEB761970FB6F894DEBF8B
:1002A0000FBECDBF198ABE016F5F7F4F90E098D01F
:1002B000CE010996EEDE61960FB6F894DEBF0FBE52
:1002C000CDBFDF91CF910895CF93DF93CDB7DEB748
:1002D00061970FB6F894DEBF0FBECDBF198ABE017D
:1002E0006F5F7F4F7DD021E030E02C0F3D1F280F46
:1002F000311DC901CEDE61960FB6F894DEBF0FBE88
:10030000CDBFDF91CF910895CF93DF93CDB7DEB707
:1003100061970FB6F894DEBF0FBECDBF198ABE013C
:100320006F5F7F4F5DD0CE010196B3DE61960FB651
:10033000F894DEBF0FBECDBFDF91CF910895CF936C
:10034000DF93CDB7DEB72A970FB6F894DEBF0FBEA6
:10035000CDBFAC018AE0E1E6F0E0DE01119601904C
:100360000D928A95E1F7FE013196DB0120E084E0F1
:100370006191719190E04617570720F09F5F461BEF
:10038000570BF9CF843039F4911104C0243011F0A7
:1003900090EF01C0822F905D9D932F5F253041F734
:1003A0002A960FB6F894DEBF0FBECDBFDF91CF9176
:1003B0000895AC0124E0942F9F709A3010F4905D62
:1003C00001C0995CFB01938384E0569547958A951B
:1003D000E1F72150615071092111EDCF84E00895BA
:1003E000FC0120E08FE040E050E8E417F50730F032
:1003F000E41BF50B8F3021F4822F02C090E001C086
:1004000091E0905DDB019D93BD01569547952F5F6F
:10041000203159F70895BB9AC39AF89480E886BDB5
:1004200016BC78948AE00FDED0E08D2F31DF8AE3AE
:100430000DDEC1E48C2F0ADECF5FCB35D9F78DE01E
:1004400005DE8AE003DEDF5F2FEF89E698E12150C9
:1004500080409040E1F700C00000E7CFF894FFCF64
:0C0460000F1027E80364000A00010000F0
:00000001FF
