:100000000EC020C01FC01EC01DC01CC01BC01AC017
:1000100019C018C017C016C015C014C013C01124D1
:100020001FBECFE5D2E0DEBFCDBF10E0A0E6B0E05E
:10003000E2EFF1E002C005900D92AE38B107D9F7BA
:1000400002D0D5C0DDCFEF92FF920F931F93BB9AE2
:10005000C39A80E690E050D081E090E075D082E0D5
:1000600090E056D088E690E047D08AE6E82E80E01F
:10007000F82EC70141D088EC91E066D00CE610E084
:10008000C8013AD08FE690E037D0C70135D085E17E
:1000900093E05AD0C80130D081E790E02DD083E0C2
:1000A00090E052D086E790E027D089E790E024D016
:1000B00081E890E021D080E090E01F910F91FF90C7
:1000C000EF900895C39897E100009150E9F720E080
:1000D00080FF02C0C39A01C0C39897E1000091500D
:1000E000E9F72F5F283011F08695F2CFC39A87E1A8
:1000F00000008150E9F70895CF93DF93EC0102C02F
:100100002196E0DF88818823D9F7DF91CF91089588
:100110000F931F93DF93CF9300D000D000D0CDB7C3
:10012000DEB71E828E010F5F1F4FB8012CD0C801B1
:10013000E3DF26960FB6F894DEBF0FBECDBFCF919A
:10014000DF911F910F9108950F931F93DF93CF932A
:1001500000D000D000D0CDB7DEB71E828E010F5F79
:100160001F4FB80110D09801280F311DC901C4DFFD
:1001700026960FB6F894DEBF0FBECDBFCF91DF91AC
:100180001F910F9108950F931F93CF93DF938B01CE
:10019000C3E8D0E034E040E050E01AC02F5F8A0F9F
:1001A0009B1F8E179F07D0F7343039F4222311F0AC
:1001B000362F03C0643009F020EFF801E40FF51F7B
:1001C000205D20834F5F5F4F22964530510549F0F7
:1001D000642FE881F98120E0AA27BB27AE1BBF0B63
:1001E000E0CF832FDF91CF911F910F910895F89465
:0201F000FFCF3F
:1001F20048656C6C6F210A0058003D003B20005995
:10020200006572725B005D3A00436F6E6E656374E7
:0E0212000020001027E80364000A000100002D
:00000001FF
