:100000000EC020C01FC01EC01DC01CC01BC01AC017
:1000100019C018C017C016C015C014C013C01124D1
:100020001FBECFE5D2E0DEBFCDBF10E0A0E6B0E05E
:10003000E6EDF3E002C005900D92A439B107D9F7BF
:1000400002D0C7C1DDCF8F929F92AF92BF92CF9265
:10005000DF92EF92FF920F931F93BB9AC39A80E6B1
:1000600090E0CDD085E89FEF41D108E610E0C801CF
:10007000C6D089E29EEE0AD1C801C1D08BE790E0DC
:10008000E6D0C801BCD087ED91E1C5D0C801B7D09A
:100090008AE690E0B4D03CE6832E30E0932EC40193
:1000A000AED02EE6E22E20E0F22EC701A8D081E0ED
:1000B00090E01CD100E710E0C801A1D093E7A92E81
:1000C00090E0B92EC5019BD0C70199D087E190E09F
:1000D0000DD1C80194D085E7C82E80E0D82EC60186
:1000E0008ED0C7018CD08EE692EB00D1C80187D0AC
:1000F000C40185D0C70183D086EA9FEFF7D0C8013D
:100100007ED0C5017CD0C7017AD08AE59DEFEED0C4
:10011000C80175D0C60173D0C70171D087EC9FECC0
:10012000E5D0C8016CD0C4016AD0C70168D081E0B5
:1001300090E08DD0C80163D0C50161D0C7015FD008
:1001400087E190E084D0C8015AD0C60158D0C701D9
:1001500056D08EE692EB7BD0C80151D0C4014FD06F
:10016000C7014DD086EA9FEF72D0C80148D0C501C3
:1001700046D0C70144D08AE59DEF69D0C8013FD081
:10018000C6013DD0C7013BD087EC9FEC60D0C801D1
:1001900036D087E790E033D083E090E0A7D08CE7BB
:1001A00090E02DD08FE790E02AD087E890E027D02C
:1001B00080E090E01F910F91FF90EF90DF90CF9043
:1001C000BF90AF909F908F900895C39897E10000E3
:1001D0009150E9F720E080FF02C0C39A01C0C398A4
:1001E00097E100009150E9F72F5F283011F08695D4
:1001F000F2CFC39A87E100008150E9F70895CF93C9
:10020000DF93EC0102C02196E0DF88818823D9F7D3
:10021000DF91CF9108950F931F93DF93CF9300D079
:1002200000D000D0CDB7DEB71E828E010F5F1F4F0A
:10023000B8019BD0C801E3DF26960FB6F894DEBF65
:100240000FBECDBFCF91DF911F910F9108950F93F6
:100250001F93DF93CF9300D000D000D0CDB7DEB78F
:100260001E828E010F5F1F4FB8017FD09801280FAB
:10027000311DC901C4DF26960FB6F894DEBF0FBE4C
:10028000CDBFCF91DF911F910F9108950F931F93D1
:10029000DF93CF93CDB7DEB727970FB6F894DEBFC5
:1002A0000FBECDBF8C0180E289831F82C80117FF7A
:1002B00004C088279927801B910BBE016E5F7F4F7A
:1002C00054D017FF05C0FE01E80FF11D8DE28183B8
:1002D000CE01019694DF27960FB6F894DEBF0FBECD
:1002E000CDBFCF91DF911F910F9108950F931F9371
:1002F000DF93CF93CDB7DEB727970FB6F894DEBF65
:100300000FBECDBF8C0180E289831F82C80117FF19
:1003100004C088279927801B910BBE016E5F7F4F19
:1003200024D0982F17FF05C0FE01E80FF11D8DE2C4
:100330008183212F332727FD309520953095222763
:10034000330F221F3327290F311DCE010196820F53
:10035000931F55DF27960FB6F894DEBF0FBECDBFB3
:10036000CF91DF911F910F9108950F931F93CF931A
:10037000DF938B01C9E8D0E034E040E050E01AC0E0
:100380002F5F8A0F9B1F8E179F07D0F7343039F4E9
:10039000222311F0362F03C0643009F020EFF8015A
:1003A000E40FF51F205D20834F5F5F4F229645309D
:1003B000510549F0642FE881F98120E0AA27BB2785
:1003C000AE1BBF0BE0CF832FDF91CF911F910F9119
:0603D0000895F894FFCF30
:1003D60048656C6C6F210A002C000A0058003D002D
:1003E6003B200059005A006572725B005D3A00437B
:1003F6006F6E6E6563740020001027E80364000AC0
:0404060000010000F1
:00000001FF
