:100000000EC020C01FC01EC01DC01CC01BC01AC017
:1000100019C018C017C016C015C014C013C01124D1
:100020001FBECFE5D2E0DEBFCDBF10E0A0E6B0E05E
:10003000E8E7F5E002C005900D92AC3BB107D9F7B7
:10004000A7D198C2DDCF809360000895F894C3983B
:1000500090916000992319F000009150FBCF98E037
:1000600080FF02C0C39A01C0C39820916000222380
:1000700019F000002150FBCF8695915089F7C39A63
:1000800080916000882319F000008150FBCF7894A4
:100090000895CF93DF93EC018991882311F0D6DF87
:1000A000FBCFDF91CF9108950F931F93CF93DF93F1
:1000B000CDB7DEB727970FB6F894DEBF0FBECDBF22
:1000C0008C0180E289831F82C80117FF04C0882742
:1000D0009927801B910BBE016E5F7F4F04D1282FA3
:1000E00030E017FF08C08DE2E1E0F0E0EC0FFD1F0B
:1000F000E20FF31F8083812F8095F90187FD3196F0
:10010000CF0121E030E02C0F3D1F820F931FC1DF94
:1001100027960FB6F894DEBF0FBECDBFDF91CF910B
:100120001F910F9108950F931F93CF93DF93CDB736
:10013000DEB727970FB6F894DEBF0FBECDBF8C0198
:1001400080E289831F82C80117FF04C0882799278E
:10015000801B910BBE016E5F7F4FC5D017FF08C09B
:10016000E1E0F0E0EC0FFD1FE80FF11D8DE2808370
:10017000CE0101968EDF27960FB6F894DEBF0FBE34
:10018000CDBFDF91CF911F910F910895CF93DF9352
:1001900000D000D000D0CDB7DEB71E82BE016F5FA9
:1001A0007F4FA1D021E030E02C0F3D1F280F311DE3
:1001B000C9016FDF26960FB6F894DEBF0FBECDBF24
:1001C000DF91CF910895CF93DF9300D000D000D07E
:1001D000CDB7DEB71E82BE016F5F7F4F84D0CE01E8
:1001E000019657DF26960FB6F894DEBF0FBECDBF3F
:1001F000DF91CF910895CF93DF93CDB7DEB76197AD
:100200000FB6F894DEBF0FBECDBF198ABE016F5F77
:100210007F4F90E0A2D021E030E02C0F3D1F280F4F
:10022000311DC90136DF61960FB6F894DEBF0FBEEF
:10023000CDBFDF91CF910895CF93DF93CDB7DEB7D8
:1002400061970FB6F894DEBF0FBECDBF198ABE010D
:100250006F5F7F4F90E081D0CE0109961ADF6196E3
:100260000FB6F894DEBF0FBECDBFDF91CF910895DA
:10027000CF93DF93CDB7DEB761970FB6F894DEBFAB
:100280000FBECDBF198ABE016F5F7F4F66D021E0E0
:1002900030E02C0F3D1F280F311DC901FADE619699
:1002A0000FB6F894DEBF0FBECDBFDF91CF9108959A
:1002B000CF93DF93CDB7DEB761970FB6F894DEBF6B
:1002C0000FBECDBF198ABE016F5F7F4F46D0CE01F2
:1002D0000196DFDE61960FB6F894DEBF0FBECDBF8C
:1002E000DF91CF910895CF93DF93CDB7DEB72A97F3
:1002F0000FB6F894DEBF0FBECDBFAC018AE0E1E6D9
:10030000F0E0DE01119601900D928A95E1F7FE0171
:100310003196DB0120E084E06191719190E0461715
:10032000570720F09F5F461B570BF9CF843039F4F5
:10033000911104C0243011F090EF01C0822F905D24
:100340009D932F5F253041F72A960FB6F894DEBFB4
:100350000FBECDBFDF91CF910895FC0120E08FE06B
:1003600040E050E8E417F50730F0E41BF50B8F3060
:1003700021F4822F02C090E001C091E0905DDB018A
:100380009D93BD01569547952F5F203159F70895EC
:10039000BB9AC39A8BE690E07CDE89E790E079DE39
:1003A0008CE790E076DE89E790E073DEC1E48C2F85
:1003B0004DDECF5FCB35D9F789E790E06ADE85E87F
:1003C0009FEF72DE89E790E064DE89E29EEEABDEAD
:1003D00089E790E05EDE8BE790E0D8DE89E790E089
:1003E00058DE87ED91E1EFDE89E790E052DE89E7A4
:1003F00090E04FDE82E990E04CDE84E990E049DE57
:100400008BE790E051DE86E990E043DE89E990E0F9
:1004100040DE84E990E03DDE8EE692EB45DE86E943
:1004200090E037DE8BE990E034DE84E990E031DE65
:100430008BE79CEF39DE86E990E02BDE8DE990E0DA
:1004400028DE84E990E025DE80E694EA2DDE86E968
:1004500090E01FDE8FE990E01CDE84E990E019DE79
:100460008BE790E093DE86E990E013DE81EA90E08E
:1004700010DE84E990E00DDE8EE692EB87DE86E901
:1004800090E007DE83EA90E004DE84E990E001DE9C
:100490008BE79CEF7BDE86E990E0FBDD85EA90E070
:1004A000F8DD84E990E0F5DD80E694EA6FDE86E928
:1004B00090E0EFDD89E790E0ECDD82E19CDE89E70A
:1004C00090E0E7DD84E3B8DE89E790E0E2DD84E3F5
:1004D00092E1CEDE89E790E0DCDD88E796E5E8DEB4
:1004E00089E790E0D6DD89E790E0D3DDC0E087EAD8
:1004F00090E0CFDD84E990E0CCDD8C2F9DDE86E9B5
:1005000090E0C7DDCC5CC43091F789E790E0C1DDB5
:10051000C0E0D0E089EA90E0BCDD84E990E0B9DD9C
:10052000CE01C6DE86E990E0B4DDCC5CDD4ECC3990
:1005300026E3D20779F789E790E0ABDD8BEA90E01C
:10054000A8DD8BE790E0B0DD80EB90E0A2DD83EBEF
:1005500090E09FDD89E790E09CDD89E790E099DD00
:100560008FE79AE126E0815090402040E1F700C0FB
:0805700000001CCFF894FFCF3E
:100578000F1027E80364000A00010048454C4C4F5F
:100588005B4F574F574F445D000D0A00536F6D6521
:100598002074657374696E672068657265202E2EF5
:1005A8002E0041003D003B2000420043004400452E
:1005B80000460047004800580059004552525B0069
:0C05C8005D3A0048617264776172650062
:00000001FF
