:100000000EC020C01FC01EC01DC01CC01BC01AC017
:1000100019C018C017C016C015C014C013C01124D1
:100020001FBECFE5D2E0DEBFCDBF10E0A0E6B0E05E
:10003000E0E0F5E002C005900D92A239B107D9F7D2
:100040009BD15CC2DDCFF894C39899E10000915038
:10005000E9F798E080FF02C0C39A01C0C39829E184
:1000600000002150E9F786959150A1F7C39A89E1E4
:1000700000008150E9F778940895CF93DF93EC0165
:100080008991882311F0DFDFFBCFDF91CF910895B5
:100090000F931F93CF93DF93CDB7DEB727970FB69C
:1000A000F894DEBF0FBECDBF8C0180E289831F8232
:1000B000C80117FF04C088279927801B910BBE0138
:1000C0006E5F7F4F04D1282F30E017FF08C08DE20C
:1000D000E1E0F0E0EC0FFD1FE20FF31F8083812FC2
:1000E0008095F90187FD3196CF0121E030E02C0F9A
:1000F0003D1F820F931FC1DF27960FB6F894DEBF16
:100100000FBECDBFDF91CF911F910F9108950F9337
:100110001F93CF93DF93CDB7DEB727970FB6F89431
:10012000DEBF0FBECDBF8C0180E289831F82C80174
:1001300017FF04C088279927801B910BBE016E5FB3
:100140007F4FC5D017FF08C0E1E0F0E0EC0FFD1FC6
:10015000E80FF11D8DE28083CE0101968EDF279698
:100160000FB6F894DEBF0FBECDBFDF91CF911F91C8
:100170000F910895CF93DF9300D000D000D0CDB77A
:10018000DEB71E82BE016F5F7F4FA1D021E030E05D
:100190002C0F3D1F280F311DC9016FDF26960FB6AA
:1001A000F894DEBF0FBECDBFDF91CF910895CF93FE
:1001B000DF9300D000D000D0CDB7DEB71E82BE01E5
:1001C0006F5F7F4F84D0CE01019657DF26960FB622
:1001D000F894DEBF0FBECDBFDF91CF910895CF93CE
:1001E000DF93CDB7DEB761970FB6F894DEBF0FBED1
:1001F000CDBF198ABE016F5F7F4F90E0A2D021E092
:1002000030E02C0F3D1F280F311DC90136DF6196EC
:100210000FB6F894DEBF0FBECDBFDF91CF9108952A
:10022000CF93DF93CDB7DEB761970FB6F894DEBFFB
:100230000FBECDBF198ABE016F5F7F4F90E081D0A6
:10024000CE0109961ADF61960FB6F894DEBF0FBE95
:10025000CDBFDF91CF910895CF93DF93CDB7DEB7B8
:1002600061970FB6F894DEBF0FBECDBF198ABE01ED
:100270006F5F7F4F66D021E030E02C0F3D1F280FCD
:10028000311DC901FADE61960FB6F894DEBF0FBECC
:10029000CDBFDF91CF910895CF93DF93CDB7DEB778
:1002A00061970FB6F894DEBF0FBECDBF198ABE01AD
:1002B0006F5F7F4F46D0CE010196DFDE61960FB6AD
:1002C000F894DEBF0FBECDBFDF91CF910895CF93DD
:1002D000DF93CDB7DEB72A970FB6F894DEBF0FBE17
:1002E000CDBFAC018AE0E0E6F0E0DE0111960190BE
:1002F0000D928A95E1F7FE013196DB0120E084E062
:100300006191719190E04617570720F09F5F461B5F
:10031000570BF9CF843039F4911104C0243011F017
:1003200090EF01C0822F905D9D932F5F253041F7A4
:100330002A960FB6F894DEBF0FBECDBFDF91CF91E6
:100340000895FC0120E08FE040E050E8E417F50755
:1003500030F0E41BF50B8F3021F4822F02C090E0C7
:1003600001C091E0905DDB019D93BD0156954795DD
:100370002F5F203159F70895BB9AC39A8AE690E01F
:100380007CDE85E89FEF84DE82E790E076DE89E21E
:100390009EEEBDDE82E790E070DE8BE790E0EADE65
:1003A00082E790E06ADE87ED91E101DF82E790E08D
:1003B00064DE80E990E061DE84E790E05EDE86E75F
:1003C00090E05BDE81E090E063DE88E790E055DE60
:1003D0008BE790E052DE86E790E04FDE87E190E029
:1003E00057DE88E790E049DE8DE790E046DE86E75D
:1003F00090E043DE8EE692EB4BDE88E790E03DDE58
:1004000084E790E03ADE86E790E037DE86EA9FEF09
:100410003FDE88E790E031DE8BE790E02EDE86E776
:1004200090E02BDE8AE59DEF33DE88E790E025DE65
:100430008DE790E022DE86E790E01FDE87EC9FEC00
:1004400027DE88E790E019DE84E790E016DE86E795
:1004500090E013DE81E090E08DDE88E790E00DDE35
:100460008BE790E00ADE86E790E007DE87E190E028
:1004700081DE88E790E001DE8DE790E0FEDD86E733
:1004800090E0FBDD8EE692EB75DE88E790E0F5DD2F
:1004900084E790E0F2DD86E790E0EFDD86EA9FEF0B
:1004A00069DE88E790E0E9DD8BE790E0E6DD86E74E
:1004B00090E0E3DD8AE59DEF5DDE88E790E0DDDD3D
:1004C0008DE790E0DADD86E790E0D7DD87EC9FEC02
:1004D00051DE88E790E0D1DD8FE790E0CEDD83E06C
:1004E00090E0D6DD84E890E0C8DD87E890E0C5DDE7
:1004F0008FE890E0C2DD80E090E00895F894FFCFAF
:100500001027E80364000A00010048656C6C6F2145
:100510000A002C0058003D003B200059005A00659D
:1005200072725B005D3A00436F6E6E656374000D1E
:020530000A00BF
:00000001FF
